:020000040800F2
:100000000050002009150008DD130008DF13000868
:10001000E1130008E3130008E513000800000000E6
:10002000000000000000000000000000E7130008CE
:10003000E913000800000000EB130008ED130008AE
:1000400051150008511500085115000851150008F8
:1000500051150008511500085115000851150008E8
:1000600051150008511500085115000851150008D8
:100070005115000851150008F51300080514000873
:10008000151400082514000835140008511500083F
:1000900051150008511500085115000851150008A8
:1000A0005115000851150008511500085115000898
:1000B0005115000851150008511500085115000888
:1000C0005115000851150008511500085115000878
:1000D0005115000845140008551400085115000872
:1000E00051150008511500085115000800000000C6
:1000F0000000000000000000000000000000000000
:0C01000000000000000000005FF808F1A3
:1001100010B5054C237833B9044B13B10448AFF341
:1001200000800123237010BDB809002000000000EA
:10013000E4B6000808B5034B1BB103490348AFF30D
:10014000008008BD00000000BC090020E4B60008E3
:10015000844641EA000313F0030349D1403A23D314
:100160000B6803604B6843608B688360CB68C36037
:100170000B6903614B6943618B698361CB69C3611F
:100180000B6A03624B6A43628B6A8362CB6AC36207
:100190000B6B03634B6B43638B6B8363CB6BC363EF
:1001A00040304031403ADBD230320BD30B68036031
:1001B0004B6843608B688360CB68C360103010313C
:1001C000103AF3D20C3205D351F8043B40F8043B0B
:1001D000043AF9D2043208D0D2071CBF11F8013B0F
:1001E00000F8013B01D30B8803806046704700BFD5
:1001F000082A13D38B07B1D010F00303AED0C3F19C
:100200000403D21ADB071CBF11F8013B00F8013BC5
:10021000A4D331F8023B20F8023B9FE7043AD9D33C
:10022000013A11F8013B00F8013BF9D20B78037059
:100230004B7843708B7883706046704781F0004143
:1002400002E000BF83F0004330B54FEA41044FEABB
:10025000430594EA050F08BF90EA020F1FBF54EA56
:10026000000C55EA020C7FEA645C7FEA655C00F0F2
:10027000E2804FEA5454D4EB5555B8BF6D420CDDC3
:100280002C4480EA020281EA030382EA000083EA46
:10029000010180EA020281EA0303362D88BF30BDE6
:1002A00011F0004F4FEA01314FF4801C4CEA11313C
:1002B00002D0404261EB410113F0004F4FEA03339B
:1002C0004CEA133302D0524263EB430394EA050F26
:1002D00000F0A780A4F10104D5F1200E0DDB02FA95
:1002E0000EFC22FA05F2801841F1000103FA0EF229
:1002F000801843FA05F359410EE0A5F120050EF1EF
:10030000200E012A03FA0EFC28BF4CF0020C43FA1F
:1003100005F3C01851EBE37101F0004507D54FF02C
:10032000000EDCF1000C7EEB00006EEB0101B1F57C
:10033000801F1BD3B1F5001F0CD349085FEA3000C2
:100340004FEA3C0C04F101044FEA445212F5800FCD
:1003500080F09A80BCF1004F08BF5FEA500C50F16A
:10036000000041EB045141EA050130BD5FEA4C0C4D
:10037000404141EB0101013C28BFB1F5801FE9D2AA
:1003800091F0000F04BF01460020B1FA81F308BFCD
:100390002033A3F10B03B3F120020CDA0C3208DD99
:1003A00002F1140CC2F10C0201FA0CF021FA02F174
:1003B0000CE002F11402D8BFC2F1200C01FA02F1E4
:1003C00020FA0CFCDCBF41EA0C019040E41AA2BF09
:1003D00001EB0451294330BD6FEA04041F3C1CDAD1
:1003E0000C340EDC04F11404C4F1200220FA04F0F1
:1003F00001FA02F340EA030021FA04F345EA03019B
:1004000030BDC4F10C04C4F1200220FA02F001FA5C
:1004100004F340EA0300294630BD21FA04F02946DE
:1004200030BD94F0000F83F4801306BF81F4801177
:100430000134013D4EE77FEA645C18BF7FEA655CEA
:1004400029D094EA050F08BF90EA020F05D054EABC
:10045000000C04BF1946104630BD91EA030F1EBFC1
:100460000021002030BD5FEA545C05D140004941C5
:1004700028BF41F0004130BD14F580043CBF01F5B8
:10048000801130BD01F0004545F0FE4141F470019E
:100490004FF0000030BD7FEA645C1ABF1946104679
:1004A0007FEA655C1CBF0B46024650EA013406BF7A
:1004B00052EA033591EA030F41F4002130BD00BF39
:1004C00090F0000F04BF0021704730B54FF48064F6
:1004D00004F132044FF000054FF0000150E700BF77
:1004E00090F0000F04BF0021704730B54FF48064D6
:1004F00004F1320410F0004548BF40424FF00001C3
:100500003EE700BF42004FEAE2014FEA31014FEA05
:1005100002701FBF12F07F4393F07F4F81F0605154
:10052000704732F07F4208BF704793F07F4F04BF9F
:1005300041F40021704730B54FF4607401F000457C
:1005400021F000411CE700BF50EA010208BF7047DC
:1005500030B54FF000050AE050EA010208BF7047CD
:1005600030B511F0004502D5404261EB41014FF436
:10057000806404F132045FEA915C3FF4D8AE4FF03E
:1005800003025FEADC0C18BF03325FEADC0C18BF21
:10059000033202EBDC02C2F1200300FA03FC20FA72
:1005A00002F001FA03FE40EA0E0021FA02F11444BF
:1005B000BDE600BF70B54FF0FF0C4CF4E06C1CEAD8
:1005C00011541DBF1CEA135594EA0C0F95EA0C0F49
:1005D00000F0DEF82C4481EA030621EA4C5123EABC
:1005E0004C5350EA013518BF52EA033541F48011EB
:1005F00043F4801338D0A0FB02CE4FF00005E1FB9E
:1006000002E506F00042E0FB03E54FF00006E1FBE7
:1006100003569CF0000F18BF4EF0010EA4F1FF042A
:10062000B6F5007F64F5407404D25FEA4E0E6D416A
:1006300046EB060642EAC62141EA55514FEAC5207B
:1006400040EA5E504FEACE2EB4F1FD0C88BFBCF5F7
:10065000E06F1ED8BEF1004F08BF5FEA500E50F1A8
:10066000000041EB045170BD06F0004646EA01016E
:1006700040EA020081EA0301B4EB5C04C2BFD4EBA0
:100680000C0541EA045170BD41F480114FF0000E99
:10069000013C00F3AB8014F1360FDEBF002001F007
:1006A000004170BDC4F10004203C35DA0C341BDC81
:1006B00004F11404C4F1200500FA05F320FA04F053
:1006C00001FA05F240EA020001F0004221F0004187
:1006D00010EBD37021FA04F642EB06015EEA430EFA
:1006E00008BF20EAD37070BDC4F10C04C4F120052A
:1006F00000FA04F320FA05F001FA04F240EA0200DD
:1007000001F0004110EBD37041F100015EEA430EAD
:1007100008BF20EAD37070BDC4F1200500FA05F2CD
:100720004EEA020E20FA04F301FA05F243EA02034C
:1007300021FA04F001F0004121FA04F220EA02005B
:1007400000EBD3705EEA430E08BF20EAD37070BDA1
:1007500094F0000F0FD101F00046400041EB010181
:1007600011F4801F08BF013CF7D041EA060195F063
:10077000000F18BF704703F00046520043EB03031D
:1007800013F4801F08BF013DF7D043EA060370470A
:1007900094EA0C0F0CEA135518BF95EA0C0F0CD015
:1007A00050EA410618BF52EA4306D1D181EA03015B
:1007B00001F000414FF0000070BD50EA410606BF55
:1007C0001046194652EA430619D094EA0C0F02D19A
:1007D00050EA013613D195EA0C0F05D152EA0336DF
:1007E0001CBF104619460AD181EA030101F00041FD
:1007F00041F0FE4141F470014FF0000070BD41F046
:10080000FE4141F4780170BD70B54FF0FF0C4CF41F
:10081000E06C1CEA11541DBF1CEA135594EA0C0F3E
:1008200095EA0C0F00F0A7F8A4EB050481EA030E8B
:1008300052EA03354FEA013100F088804FEA033372
:100840004FF0805545EA131343EA12634FEA022240
:1008500045EA111545EA10654FEA00260EF0004101
:100860009D4208BF964244F1FD0404F5407402D253
:100870005B084FEA3202B61A65EB03055B084FEAE4
:1008800032024FF480104FF4002CB6EB020E75EBE1
:10089000030E22BFB61A754640EA0C005B084FEA09
:1008A0003202B6EB020E75EB030E22BFB61A754686
:1008B00040EA5C005B084FEA3202B6EB020E75EBD1
:1008C000030E22BFB61A754640EA9C005B084FEA49
:1008D0003202B6EB020E75EB030E22BFB61A754656
:1008E00040EADC0055EA060E18D04FEA051545EA45
:1008F00016754FEA06164FEAC30343EA52734FEAEE
:10090000C2025FEA1C1CC0D111F4801F0BD141EA66
:1009100000014FF000004FF0004CB6E711F4801FCB
:1009200004BF01430020B4F1FD0C88BFBCF5E06FAB
:100930003FF6AFAEB5EB030C04BFB6EB020C5FEABB
:10094000500C50F1000041EB045170BD0EF0004E10
:100950004EEA113114EB5C04C2BFD4EB0C0541EA42
:10096000045170BD41F480114FF0000E013C90E63F
:1009700045EA060E8DE60CEA135594EA0C0F08BF03
:1009800095EA0C0F3FF43BAF94EA0C0F0AD150EA02
:1009900001347FF434AF95EA0C0F7FF425AF104695
:1009A00019462CE795EA0C0F06D152EA03353FF4BD
:1009B000FDAE1046194622E750EA410618BF52EA3A
:1009C00043067FF4C5AE50EA41047FF40DAF52EA0E
:1009D00043057FF4EBAE12E74FF0FF3C06E000BFAB
:1009E0004FF0010C02E000BF4FF0010C4DF804CDB8
:1009F0004FEA410C7FEA6C5C4FEA430C18BF7FEA78
:100A00006C5C1BD001B050EA410C0CBF52EA430CA5
:100A100091EA030F02BF90EA020F0020704710F125
:100A2000000F91EA030F58BF994208BF90422CBFB4
:100A3000D8176FEAE37040F0010070474FEA410CAD
:100A40007FEA6C5C02D150EA013C07D14FEA430CCB
:100A50007FEA6C5CD6D152EA033CD3D05DF8040B3C
:100A6000704700BF8446104662468C46194663466E
:100A700000E000BF01B5FFF7B7FF002848BF10F145
:100A8000000F01BD4DF808EDFFF7F4FF0CBF01208A
:100A900000205DF808FB00BF4DF808EDFFF7EAFF06
:100AA00034BF012000205DF808FB00BF4DF808EDC1
:100AB000FFF7E0FF94BF012000205DF808FB00BFB6
:100AC0004DF808EDFFF7CEFF94BF012000205DF840
:100AD00008FB00BF4DF808EDFFF7C4FF34BF01204D
:100AE00000205DF808FB00BF4FEA410C7FEA6C5C18
:100AF00002D150EA013C0AD14FEA430C7FEA6C5C18
:100B000002D152EA033C02D14FF0000070474FF08F
:100B1000010070474FEA410212F5001215D211D5BB
:100B20006FF47873B3EB625212D94FEAC12343F0EA
:100B3000004343EA505311F0004F23FA02F018BF6C
:100B4000404270474FF00000704750EA013005D135
:100B500011F0004008BF6FF0004070474FF00000F8
:100B6000704700BF53B94AB9002908BF00281CBF0D
:100B70004FF0FF314FF0FF3000F076B9ADF1080CC7
:100B80006DE904CE00F006F8DDF804E0DDE90223AB
:100B900004B070472DE9F047089E0D46044688468C
:100BA000002B4DD18A42944668D9B2FA82F252B1F2
:100BB00001FA02F3C2F1200120FA01F10CFA02FC61
:100BC00041EA030894404FEA1C41B8FBF1F71FFAD1
:100BD0008CFE01FB178807FB0EF0230C43EA084349
:100BE00098420AD91CEB030307F1FF3580F01E8100
:100BF000984240F21B81023F63441B1AB3FBF1F0A1
:100C000001FB103300FB0EFEA4B244EA0344A645E8
:100C10000AD91CEB040400F1FF3380F00981A645DA
:100C200040F20681644402380021A4EB0E0440EA3D
:100C300007401EB10023D440C6E90043BDE8F08759
:100C40008B4208D9002E00F0EE800021C6E9000595
:100C50000846BDE8F087B3FA83F100294AD1AB42D8
:100C600002D3824200F2FC80841A65EB0303012068
:100C70009846002EE2D0C6E90048DFE702B9FFDE61
:100C8000B2FA82F2002A40F09180A1EB0C0001211F
:100C90004FEA1C471FFA8CFEB0FBF7F307FB13006B
:100CA000250C45EA00450EFB03F0A84208D91CEBD1
:100CB000050503F1FF3802D2A84200F2CE80434678
:100CC0002D1AB5FBF7F007FB10550EFB00FEA4B282
:100CD00044EA0544A64508D91CEB040400F1FF359D
:100CE00002D2A64500F2B6802846A4EB0E0440EAE4
:100CF00003409EE7C1F120078B4022FA07FC4CEA33
:100D0000030C25FA07FA4FEA1C49BAFBF9F820FA56
:100D100007F309FB18AA8D401FFA8CFE1D4300FA49
:100D200001F308FB0EF02C0C44EA0A44A04202FA3C
:100D300001F20BD91CEB040408F1FF3A80F0888023
:100D4000A04240F28580A8F102086444241AB4FB52
:100D5000F9F009FB104400FB0EFEADB245EA044475
:100D6000A64508D91CEB040400F1FF356CD2A6455A
:100D70006AD90238644440EA0840A0FB0295A4EB1B
:100D80000E04AC42C846AE4656D353D0002E69D0AE
:100D9000B3EB080264EB0E0422FA01F304FA07F73E
:100DA0001F43CC40C6E90074002147E70CFA02FC5F
:100DB000C2F1200125FA01F34FEA1C4720FA01F1A4
:100DC00095400D43B3FBF7F107FB11331FFA8CFE7F
:100DD000280C40EA034001FB0EF3834204FA02F4BC
:100DE00008D91CEB000001F1FF382FD283422DD926
:100DF00002396044C01AB0FBF7F307FB1300ADB231
:100E000045EA004503FB0EF0A84208D91CEB050596
:100E100003F1FF3816D2A84214D9023B6544281AC0
:100E200043EA014138E73146304607E72F46E4E61A
:100E30001846F9E64B45A9D2B9EB020865EB0C0E52
:100E40000138A3E74346EAE7284694E74146D1E75D
:100E5000D0467BE76444023847E7023B65442FE70E
:100E6000084606E73146E9E6704700BF2DE9F04342
:100E700089B0002404940594069407942E4B9A6933
:100E800042F010029A619A6902F010020092009AF0
:100E90009A6942F020029A619A6902F02002019256
:100EA000019A9A6942F004029A619A6902F0040276
:100EB0000292029A9A6942F008029A619B6903F0D1
:100EC00008030393039BDFF8749022464FF46041BC
:100ED000484601F049F9DFF868802246F021404693
:100EE00001F042F9174F22464FF27A71384601F06D
:100EF0003BF94FF4604304930126059606940225BE
:100F0000079504A9484601F01DF8F02304930596BF
:100F10000694079504A9404601F014F84FF27A733D
:100F2000049305960694079504A9384601F00AF83B
:100F300009B0BDE8F08300BF00100240001001407E
:100F400000080140000C014000B583B0164B5A69FF
:100F500042F001025A615B6903F001030193019BB6
:100F6000002211460E2000F0FBFD0E2000F030FEA6
:100F7000002211460F2000F0F3FD0F2000F028FEA4
:100F800000221146102000F0EBFD102000F020FEA2
:100F900000221146112000F0E3FD112000F018FEA0
:100FA00003B05DF804FB00BF0010024010B514460A
:100FB00092B2024801F022FE204610BD880B0020AC
:100FC00072B6FEE708B50A480A4B03604FF4E133F6
:100FD000436000238360C36003610C22426183612C
:100FE000C36101F074FD00B908BDFFF7E9FF00BF60
:100FF000880B00200038014000B585B00023019324
:10100000029303931048114A026083600122027325
:1010100003754FF46021C1614360026100F008FD77
:1010200068B908230193012302930723039301A9BD
:10103000054800F073FB20B905B05DF804FBFFF72D
:10104000BFFFFFF7BDFF00BF480A0020002401409A
:1010500008B50A480A4B03604FF4E13343600023AC
:101060008360C36003610C2242618361C36101F04C
:101070002EFD00B908BDFFF7A3FF00BFD00B002075
:101080000044004000B595B0282200210DEB02007D
:1010900002F068FC002305930693079308930993D5
:1010A000019302930393049301220A924FF4803335
:1010B0000B930E920222119212934FF4E0131393AA
:1010C0000AA801F06DF8D8B90F2305930221069103
:1010D000002307934FF4806308934FF4E063099370
:1010E00005A801F08FFA68B9022301934FF4404339
:1010F000039301A801F062FB30B915B05DF804FB61
:10110000FFF75EFFFFF75CFFFFF75AFF08B500F03F
:1011100047FAFFF7B7FFFFF7A9FEFFF715FFFFF745
:1011200051FFFFF769FFFFF793FF0121074802F026
:10113000C7F80221064802F0C3F8064802F0AAF8F0
:1011400002F0F0FA034802F063FAFBE7D40900204A
:10115000180C0020140A002082B00E4B9A6942F04D
:1011600001029A619A6902F001020092009ADA691A
:1011700042F08052DA61DB6903F080530193019BF6
:10118000054A536823F0E06343F00073536002B0F4
:10119000704700BF001002400000014000B587B05A
:1011A000002302930393049305930268154B9A421C
:1011B00002D007B05DF804FB03F56C439A6942F472
:1011C00000729A619A6902F400720092009A9A6918
:1011D00042F008029A619B6903F008030193019BA6
:1011E000012302930323039302A9074800F0AAFEF8
:1011F00000221146122000F0B3FC122000F0E8FC9F
:10120000D7E700BF00240140000C014070B588B052
:101210000446002304930593069307930368634AE7
:10122000934204D0624A934261D008B070BD614BD2
:101230009A6942F480429A619A6902F4804200926B
:10124000009A9A6942F004029A619B6903F00403D0
:101250000193019B4FF4007304930223059303232E
:101260000793554E04A9304600F06CFE4FF480639E
:10127000049300250595069504A9304600F062FE0A
:101280004E484F4B03601023436085608023C3604A
:101290000561456185614FF48053C36100F0D0FC66
:1012A000F8B9464BA3635C624648474B0360002392
:1012B000436083608022C2600361436183614FF4B5
:1012C0008053C36100F0BCFC70B93E4BE3635C62C9
:1012D00000221146252000F043FC252000F078FC78
:1012E000A3E7FFF76DFEDCE7FFF76AFEEDE7314BA2
:1012F000DA6942F40032DA61DA6902F40032029209
:10130000029A9A6942F004029A619B6903F004030D
:101310000393039B0423049302230593032307935E
:10132000254E04A9304600F00DFE08230493002545
:101330000595069504A9304600F004FE2348244B89
:101340000360456085608023C360056145618561F8
:101350004FF40053C36100F073FC00BB1B4BE3630D
:101360005C621C481C4B03601023436000238360B5
:101370008022C2600361436183614FF40053C36103
:1013800000F05EFC70B9134BA3635C62002211464F
:10139000262000F0E5FB262000F01AFC45E7FFF7C9
:1013A0000FFEDBE7FFF70CFEEDE700BF0038014062
:1013B000004400400010024000080140BC0A002028
:1013C00044000240780A002058000240000B002030
:1013D0006C000240440B002080000240FEE7FEE764
:1013E000FEE7FEE7FEE770477047704708B500F07C
:1013F000E9F808BD08B5024800F002FD08BD00BFCD
:10140000BC0A002008B5024800F0FAFC08BD00BF85
:10141000780A002008B5024800F0F2FC08BD00BFC1
:10142000000B002008B5024800F0EAFC08BD00BF30
:10143000440B002008B5024800F0EEF808BD00BFDC
:10144000480A002008B5024801F000FD08BD00BFB1
:10145000880B002008B5024801F0F8FC08BD00BF69
:10146000D00B00200120704708B502F051FA162376
:1014700003604FF0FF3008BD08B54FF0FF31FFF7B4
:10148000F3FFFEE770B50C461646002506E0AFF305
:101490000080214601F8010B01350C46B542F6DB10
:1014A000304670BD4FF0FF3070474FF400534B6033
:1014B00000207047012070470020704710B5034698
:1014C0000C4A0D490D48006840B10C4800680344BF
:1014D000521A934206D8094A136010BD0748084CB7
:1014E0000460F2E702F014FA0C2303604FF0FF30BF
:1014F000F3E700BF0050002000040000580C00205B
:10150000C823002070470000FFF7FCFF0B480C4980
:101510000C4A002302E0D458C4500433C4188C424F
:10152000F9D3094A094C002301E013600432A242B6
:10153000FBD302F0F3F9FFF7E9FD7047000000204C
:10154000B809002054BD0008B8090020C8230020B5
:10155000FEE7000010B504460E4B18784FF47A737E
:10156000B3FBF0F30C4A1068B0FBF3F000F03EFB65
:1015700068B90F2C01D901200AE0002221464FF062
:10158000FF3000F0EDFA054B1C60002000E0012068
:1015900010BD00BF04000020000000200800002053
:1015A00008B5074A136843F010031360032000F0E6
:1015B000C5FA0F20FFF7CEFFFFF7CEFD002008BDD4
:1015C00000200240034A1168034B1B780B44136050
:1015D000704700BF5C0C002004000020014B18681D
:1015E000704700BF5C0C002038B50446FFF7F6FFDB
:1015F0000546B4F1FF3F02D0044B1B781C44FFF7B3
:10160000EDFF401BA042FAD338BD00BF040000200C
:101610000368D86C7047704770B5044603681E684D
:101620005D6815F0200F17D016F0020F14D0826AF3
:1016300012F0100F03D1826A42F4007282629A683B
:1016400002F46022B2F5602F33D0204602F024F875
:1016500023686FF012021A6015F0800F22D016F086
:10166000040F1FD0A36A13F0100F03D1A36A43F431
:101670000053A3622268936803F4E043B3F5E04F9C
:101680002ED0536813F4806F05D1936803F4602360
:10169000B3F5602F21D0204600F04EFA23686FF09A
:1016A0000C021A6015F0400F02D016F0010F28D17D
:1016B00070BD227B002AC8D15A6822F020025A60ED
:1016C000A36A23F48073A362A36A13F4805FBCD17E
:1016D000A36A43F00103A362B7E7237B002BDAD1AF
:1016E000536823F080035360A36A23F48053A362FA
:1016F000A36A13F4807FCED1A36A43F00103A362EF
:10170000C9E7A36A43F48033A3622046FFF783FF4F
:1017100023686FF001021A60CAE7000030B482B09B
:101720000022019290F82420012A00F091800346C3
:10173000012280F824204A68062A2DD80468606BAC
:1017400002EB8202053A4FF01F0C0CFA02FC20EA71
:101750000C000D6805FA02F2024362630A68092A66
:101760003AD91C68E06802EB42021E3A4FF0070CBF
:101770000CFA02FC20EA0C008D6805FA02F2024322
:10178000E2600A68103A012A36D90020002283F864
:10179000242002B030BC70470C2A0ED80568286B94
:1017A00002EB8202233A1F24944020EA04000C68D2
:1017B00004FA02F202432A63D0E70568E86A02EB02
:1017C0008202413A1F24944020EA04000C6804FA83
:1017D00002F20243EA62C1E71C68206902EB42029E
:1017E0004FF0070C0CFA02FC20EA0C008D6805FA99
:1017F00002F202432261C4E71A681648824205D009
:101800009A6A42F020029A620120BFE7906810F4C1
:10181000000F1BD1906840F4000090600A68102A05
:1018200001D00020B2E70C4A12680C49A1FB021259
:10183000920C02EB82025200019202E0019A013AFC
:101840000192019A002AF9D100209FE700209DE72C
:1018500002209EE7002401400000002083DE1B439D
:1018600030B583B00023019303689A6812F0010F2A
:1018700033D104469A6842F001029A60184B1B6803
:10188000184AA2FB03239B0C019302E0019B013B3E
:101890000193019B002BF9D1FFF7A0FE05462368B9
:1018A0009B6813F0010F16D1FFF798FE431B022B24
:1018B000F5D923689B6813F0010FF0D1A36A43F0B8
:1018C0001003A362E36A43F00103E362002384F898
:1018D0002430012002E0002000E0002003B030BDF1
:1018E0000000002083DE1B4390F82430012B6DD0D4
:1018F00010B50446012380F82430FFF7B1FF00281B
:1019000060D1A36A23F4706323F0010343F480736E
:10191000A36223682E4A93422CD0A26A22F480123A
:10192000A2625A6812F4806F05D0A26A22F4405273
:1019300042F48052A262A26A12F4805F30D0E26A5E
:1019400022F00602E262002284F824206FF00202F4
:101950001A602268536843F02003536023689A6832
:1019600002F46022B2F5602F1DD09A6842F4801212
:101970009A602AE0A2F58062526812F4702FCCD0EF
:10198000A26A42F48012A262124A526812F4806F74
:10199000D1D0A26A22F4405242F48052A262CAE735
:1019A0000022E262CFE70A4A934204D09A6842F4E6
:1019B000A0029A6009E0A2F58062526812F4702FCA
:1019C000D3D1F3E7002384F8243010BD0220704700
:1019D000002801400024014038B503689A6812F0DD
:1019E000010F01D1002038BD04469A6822F001029F
:1019F0009A60FFF7F3FD054623689B6813F0010F1B
:101A000013D0FFF7EBFD431B022BF5D923689B682E
:101A100013F0010FF0D0A36A43F01003A362E36A4E
:101A200043F00103E3620120DDE70020DBE7000073
:101A300000287BD070B50446836A002B4DD0204629
:101A4000FFF7CAFFA36A13F0100369D1002867D11A
:101A5000A26A22F4885222F0020242F00202A2623A
:101A60006268E1690A43217B42EA4102A568B5F553
:101A7000807F02D0012D36D01D46267D012E35D027
:101A80002668716821F46941294371602568AE6850
:101A9000274931401143A960A168B1F5807F01D089
:101AA000012902D12369013B1B052568E96A21F45C
:101AB00070010B43EB62236899681E4B0B409A42FE
:101AC00025D0A36A23F0120343F01003A362E36A54
:101AD00043F00103E362012027E0C36280F8243071
:101AE000FFF75CFBABE74FF48075C6E731B9A1693E
:101AF000013945EA413141F40065C1E7A16A41F08D
:101B00002001A162E16A41F00101E162B8E700232E
:101B1000E362A36A23F0030343F00103A36204E03A
:101B2000A36A43F01003A362012070BD0120704737
:101B3000FDF7E1FFFE0E1FFF70470000074AD36864
:101B400023F4E0631B041B0C000200F4E060034379
:101B500043F0BF6343F40033D360704700ED00E00F
:101B600000B5194BDB68C3F30223C3F1070CBCF1CA
:101B7000040F28BF4FF0040C03F1040EBEF1060F52
:101B800018D9033B4FF0FF3E0EFA0CFC21EA0C0182
:101B900099400EFA03F322EA0303194300280BDBF2
:101BA0000901C9B200F1604000F5614080F80013FE
:101BB0005DF804FB0023E5E700F00F000901C9B25E
:101BC000024B1954F4E700BF00ED00E014ED00E013
:101BD000002807DB00F01F02400901239340024A5E
:101BE00042F82030704700BF00E100E00138B0F15A
:101BF000807F0BD24FF0E0235861054AF02182F834
:101C000023100020986107221A6170470120704755
:101C100000ED00E030B40124056CAC40C56B6C6095
:101C2000046863604368102B05D0036899600368FB
:101C3000DA6030BC704703689A600368D960F8E7DF
:101C400060B310B402460168154B0B441548A0FB65
:101C500003031B099B001364134BD363022382F815
:101C60002130086820F47F5020F0300053689468D9
:101C70002343D46823431469234354692343946959
:101C80002343D469234303430B6000209063012363
:101C900082F8213082F8200010BC70470120704784
:101CA000F8FFFDBFCDCCCCCC0000024038B50446D7
:101CB00090F82000012832D0012084F8200094F808
:101CC0002100C0B2012804D0002384F82030022073
:101CD00038BD022084F821000020A0632568286810
:101CE00020F0010028602046FFF794FFE36A5BB113
:101CF0002268136843F00E0313602268136843F0F0
:101D0000010313600020E3E72268136823F0040353
:101D100013602268136843F00A031360EDE70220A2
:101D2000D6E790F82130DBB2022B06D00423836380
:101D3000002380F82030012070470268136823F0E8
:101D40000E0313600268136823F001031360036C31
:101D5000C16B012202FA03F34B6080F821200023BB
:101D600080F820301846704708B590F82130DBB273
:101D7000022B03D004238363012008BD026813688B
:101D800023F00E0313600268136823F0010313604D
:101D90000368194A934214D0143293421FD014326C
:101DA00093421ED0143293421ED0143293421ED05E
:101DB0001432934202D04FF0807203E04FF480124D
:101DC00000E001220D4B5A60012380F821300023EE
:101DD00080F82030436B6BB198470020CDE710228C
:101DE000F0E74FF48072EDE74FF48052EAE74FF4EA
:101DF0008032E7E70020C0E7080002400000024010
:101E000038B5C36B1A6804682568016C04238B40DD
:101E1000134235D015F0040F32D0236813F0200F91
:101E200003D1236823F0040323600368434A9342E9
:101E300014D01432934218D01432934217D0143273
:101E4000934217D01432934217D01432934202D0E7
:101E50004FF0806203E04FF4800200E00422384B30
:101E60005A60C36A03B1984738BD4022F7E74FF480
:101E70008062F4E74FF48042F1E74FF48022EEE70E
:101E800002238B4013423CD015F0020F39D0236857
:101E900013F0200F06D1236823F00A0323600123E7
:101EA00080F821300368254A934214D014329342BB
:101EB0001CD0143293421BD0143293421BD01432E4
:101EC00093421BD01432934202D04FF0007203E0D1
:101ED0004FF4001200E00222194B5A60002380F8F0
:101EE0002030836A002BBFD09847BDE72022F3E75C
:101EF0004FF40072F0E74FF40052EDE74FF4003278
:101F0000EAE7082303FA01F11142ADD015F0080FFA
:101F1000AAD0236823F00E032360026CC16B012357
:101F200003FA02F24A60836380F82130002380F8CC
:101F30002030036B002B97D0984795E708000240AC
:101F40000000024070B582B00024A446A6E0804D97
:101F5000AA4210D007D97F4DAA420CD005F5803592
:101F6000AA4208D013E0A5F58015AA4203D005F5D2
:101F70007025AA4207D18A68002A58D0012A51D078
:101F80004361082403E0A5F58015AA42F3D0BEF111
:101F9000FF0F4ED80646BEF1FF0F4CD84FEA8C0219
:101FA00033680F25954023EA050304FA02F2134330
:101FB00033604B6813F0805F6ED0674B9A6942F0D4
:101FC00001029A619B6903F001030193019B4FEAAF
:101FD0009C02951C614B53F825600CF003039D0097
:101FE0000F23AB4026EA03065D4B984229D003F548
:101FF0008063984200F08E8003F58063984200F081
:102000008B8003F58063984219D004231AE0CC68D2
:10201000BDE7CC680434BAE7CC680834B7E7CC68CD
:102020000C34B4E703610824B1E70024AFE70424CB
:10203000ADE7061DAFE7ACF108029200B0E703235D
:1020400000E00023AB4033430232444D45F82230D8
:102050004B6813F4801F61D0424A936843EA0E0331
:1020600093604B6813F4001F5ED03E4AD36843EA86
:102070000E03D3604B6813F4003F5BD0394A5368BA
:1020800043EA0E0353604B6813F4803F58D0354A3F
:10209000136843EA0E0313600CF1010C0A6832FA6C
:1020A0000CF353D0012303FA0CF302EA030E33EAD4
:1020B0000202F1D14A68122A3FF649AF122A3FF6CE
:1020C00066AF01A555F822F0771F00080F20000821
:1020D000192000082B2000088F1F00088F1F000800
:1020E0008F1F00088F1F00088F1F00088F1F000818
:1020F0008F1F00088F1F00088F1F00088F1F000808
:102100008F1F00088F1F00088F1F00081320000872
:102110001F200008012395E7022393E7114A9368E3
:1021200023EA0E0393609CE70E4AD36823EA0E036A
:10213000D3609FE70B4A536823EA0E035360A2E77C
:10214000084A136823EA0E031360A5E702B070BDC6
:102150000000221000003110001002400000014079
:1021600000080140000401400AB101617047090400
:102170000161704782B0084B1B68084AA2FB032329
:102180005B0A00FB03F3019300BF019B5A1E0192FF
:10219000002BF9D102B0704700000020D34D62102F
:1021A000002800F0F18170B582B00446036813F096
:1021B000010F2CD0994B5B6803F00C03042B1DD04E
:1021C000964B5B6803F00C03082B12D06368B3F5E1
:1021D000803F41D0002B55D103F1804303F50433F8
:1021E0001A6822F480321A601A6822F480221A6077
:1021F00037E08A4B5B6813F4803FE7D0874B1B685E
:1022000013F4003F03D06368002B00F0BF81236804
:1022100013F0020F75D0814B5B6813F00C0F5FD089
:102220007E4B5B6803F00C03082B54D02369002B12
:1022300000F08A807A4B01221A60FFF7CFF9054639
:10224000764B1B6813F0020F75D1FFF7C7F9401BDF
:102250000228F5D903209EE1704A136843F48033C5
:102260001360636843B3FFF7B9F905466B4B1B680E
:1022700013F4003FCBD1FFF7B1F9401B6428F5D927
:10228000032088E1B3F5A02F09D0644B1A6822F42B
:1022900080321A601A6822F480221A60E1E703F1A2
:1022A0008043A3F53C331A6842F480221A601A680E
:1022B00042F480321A60D4E7FFF790F90546574B95
:1022C0001B6813F4003FA2D0FFF788F9401B642875
:1022D000F5D903205FE1514B5B6813F4803FA5D132
:1022E0004E4B1B6813F0020F03D02369012B40F003
:1022F0004F814A4A136823F0F803616943EAC10336
:102300001360236813F0080F33D0A369002B5CD04F
:10231000434B0122C3F88024FFF760F905463F4B89
:102320005B6A13F0020F21D1FFF758F9401B022816
:10233000F5D903202FE1394A136823F0F8036169C6
:1023400043EAC1031360DCE7354B00221A60FFF754
:1023500045F90546314B1B6813F0020FD1D0FFF74A
:102360003DF9401B0228F5D9032014E10120FFF7B5
:1023700001FF236813F0040F00F09680274BDB6900
:1023800013F0805F34D1254BDA6942F08052DA6174
:10239000DB6903F080530193019B0125214B1B68EE
:1023A00013F4807F26D0E368012B3DD0002B53D15E
:1023B00003F1804303F504331A6A22F001021A6222
:1023C0001A6A22F004021A6233E0154B0022C3F8A5
:1023D0008024FFF703F90546104B5B6A13F0020FE8
:1023E000C7D0FFF7FBF8401B0228F5D90320D2E045
:1023F0000025D3E70B4A136843F480731360FFF79B
:10240000EDF80646074B1B6813F4807FCBD1FFF72E
:10241000E5F8801B6428F5D90320BCE000100240D9
:1024200000004242007000405F4A136A43F001031B
:102430001362E36833B3FFF7D1F806465A4B1B6AC1
:1024400013F0020F2FD1FFF7C9F8801B41F2883338
:102450009842F3D903209EE0052B09D0524B1A6A0B
:1024600022F001021A621A6A22F004021A62E0E7FC
:102470004D4B1A6A42F004021A621A6A42F00102D3
:102480001A62D6E7FFF7AAF80646474B1B6A13F015
:10249000020F08D0FFF7A2F8801B41F28833984260
:1024A000F3D9032077E0E5B9E369002B72D03E4A07
:1024B000526802F00C02082A56D0022B17D03B4B70
:1024C00000221A66FFF78AF80446374B1B6813F0A0
:1024D000007F47D0FFF782F8001B0228F5D90320C0
:1024E00059E0314AD36923F08053D361DCE72F4BA5
:1024F00000221A66FFF772F805462B4B1B6813F093
:10250000007F06D0FFF76AF8401B0228F5D90320A8
:1025100041E0236AB3F5803F1AD023494B6823F486
:102520007413226A606A024313434B601F4B0122FB
:102530001A66FFF753F804461B4B1B6813F0007F25
:102540000ED1FFF74BF8001B0228F5D9032022E03B
:10255000154A536823F40033A1680B435360DCE74A
:10256000002018E0002016E0012B16D00E4B5B680F
:1025700003F48031226A914211D103F47013626A2C
:1025800093420ED1002006E001207047012002E0B6
:10259000012000E0002002B070BD0120FBE7012017
:1025A000F9E70120F7E700BF0010024000004242B7
:1025B0000F4B5B6803F00C02082A01D00D487047EE
:1025C000C3F383420C49885C13F4803F0BD0084B63
:1025D0005B68C3F34043094AD35C064A02FB00F040
:1025E000B0FBF3F07047064B03FB00F0704700BFF1
:1025F0000010024000127A0018B7000828B700083F
:1026000000093D00002800F0A08070B50D4604468A
:10261000524B1B6803F007038B420BD24F4A1368DF
:1026200023F007030B431360136803F007038B4287
:1026300040F08D80236813F0020F17D013F0040FC1
:1026400004D0474A536843F4E0635360236813F0AF
:10265000080F04D0424A536843F460535360404A21
:10266000536823F0F003A1680B435360236813F011
:10267000010F31D06368012B20D0022B25D0384ABE
:10268000126812F0020F64D035494A6822F0030242
:1026900013434B60FEF7A2FF0646314B5B6803F025
:1026A0000C036268B3EB820F16D0FEF797FF801B16
:1026B00041F288339842F0D9032045E0284A126855
:1026C00012F4003FE0D101203EE0254A126812F0EA
:1026D000007FD9D1012037E0204B1B6803F00703AE
:1026E000AB420AD91D4A136823F007032B4313603A
:1026F000136803F00703AB422DD1236813F0040FD6
:1027000006D0174A536823F4E063E1680B43536033
:10271000236813F0080F07D0114A536823F460535D
:10272000216943EAC1035360FFF742FF0C4B5B682A
:10273000C3F303130B4AD35CD8400B4B18600B4B0D
:102740001868FEF707FF002070BD012070470120C8
:10275000FAE70120F8E70120F6E700BF0020024079
:102760000010024000B70008000000200800002010
:10277000014B1868704700BF0000002008B5FFF744
:10278000F7FF044B5B68C3F30223034AD35CD840D2
:1027900008BD00BF0010024010B7000808B5FFF7E1
:1027A000E7FF044B5B68C3F3C223034AD35CD84002
:1027B00008BD00BF0010024010B7000870B582B01D
:1027C0000446036813F0010F36D03F4BDB6913F06A
:1027D000805F49D13C4BDA6942F08052DA61DB69B3
:1027E00003F080530193019B0125384B1B6813F4C0
:1027F000807F3BD0344B1B6A13F4407313D0626864
:1028000002F440729A420ED02F4A136A23F44070A9
:102810002F490126C1F840640026C1F840641062C7
:1028200013F0010F36D1284A136A23F4407361680C
:102830000B431362002D3ED1236813F0020F06D024
:10284000214A536823F44043A1680B435360236833
:1028500013F0100F34D01C4A536823F48003E1684E
:102860000B43536000202CE00025BEE7174A136895
:1028700043F480731360FEF7B1FE0646134B1B68EA
:1028800013F4807FB6D1FEF7A9FE801B6428F5D92A
:10289000032016E0FEF7A2FE06460B4B1B6A13F060
:1028A000020FC0D1FEF79AFE801B41F28833984296
:1028B000F3D9032005E0D36923F08053D361BBE74C
:1028C000002002B070BD00BF001002400070004048
:1028D00000004242026802F10C0353E8003F23F07B
:1028E000C0030C3242E800310029F3D1202380F8E4
:1028F00041307047026802F10C0353E8003F23F4B3
:1029000090730C3242E800310029F3D1026802F1E1
:10291000140353E8003F23F00103143242E800316E
:102920000029F3D1036B012B05D0202380F842301E
:10293000002303637047026802F10C0353E8003F71
:1029400023F010030C3242E800310029F3D1ECE708
:1029500090F84130DBB2212B01D002207047836810
:10296000B3F5805F17D0036A5A1C02621A780368B5
:102970005A60C38C9BB2013B9BB2C3844BB90268C3
:10298000D36823F08003D3600268D36843F0400328
:10299000D360002070470369002BE4D1036A1B88D1
:1029A0000268C3F308035360036A02330362E0E77B
:1029B00010B504460268136923F44053C1680B4301
:1029C000136183680269134342691A430168CB6843
:1029D00023F4B05323F00C031343CB600268536914
:1029E00023F4407381690B4353610268134B9A428D
:1029F00020D0FFF7C3FE024602EB820202EB820206
:102A000063689B00B2FBF3F20D48A0FB0231490959
:102A1000642303FB11231B013233A0FB03235B0957
:102A200003F0F00202EB011203F00F0321681344DC
:102A30008B6010BDFFF7B2FE0246DDE700380140B3
:102A40001F85EB512DE9F04383B005460E4617462E
:102A50009946DDF828802C68246836EA04030CBF08
:102A60004FF0010C4FF0000CBC4528D1B8F1FF3FEE
:102A7000F1D0FEF7B3FDA0EB0900404523D8B8F133
:102A8000000F22D02B68DA6812F0040FE3D0802EFA
:102A9000E1D0402EDFD01A6812F0080FDBD00024FE
:102AA00001941A6801925B680193019B2846FFF725
:102AB00021FF08236B6485F84040012000E00020DE
:102AC00003B0BDE8F0830320FAE70320F8E760B322
:102AD00010B5044690F8413013B3242384F84130F4
:102AE0002268D36823F40053D3602046FFF760FFC9
:102AF0002268136923F4904313612268536923F019
:102B00002A0353612268D36843F40053D360002042
:102B10006064202384F8413084F84230606310BD43
:102B200080F84030FEF772FBD7E7012070472DE9AF
:102B3000F04182B01E4690F84130DBB2202B56D1D6
:102B400004460D469046002955D00AB901204FE0B1
:102B500000234364212380F84130FEF73FFD074600
:102B6000A4F82480A4F82680A368B3F5805F02D07F
:102B70004FF0000814E023692BB34FF000080FE07A
:102B8000202384F84130032032E038F8023B2268E9
:102B9000C3F308035360E28C92B2013A92B2E2842A
:102BA000E38C9BB293B100963B46002280212046E5
:102BB000FFF748FF0028E3D1002DE6D015F8012BE0
:102BC00023685A60E7E7A8460025E9E700963B46F8
:102BD000002240212046FFF735FF18B9202384F852
:102BE000413005E0202384F84130032000E002203A
:102BF00002B0BDE8F0810120FAE7000038B590F896
:102C00004130DBB2202B30D1044600292FD00AB945
:102C1000012038BD01628284C284002343642120E4
:102C200084F84100A06B134D8562A06B124DC56204
:102C3000A06B124D0563A06B436320681346021D11
:102C4000A06BFFF733F823686FF040021A60226828
:102C500002F1140353E8003F43F08003143242E8CA
:102C600000310029F3D10020D3E70220D1E7012071
:102C7000CFE700BF832C0008EB2C0008FB2C0008DA
:102C8000704708B50346406A1B681B6813F0200FA5
:102C90001AD10023C384026802F1140353E8003FF1
:102CA00023F08003143242E800310029F3D1026896
:102CB00002F10C0353E8003F43F040030C3242E8BA
:102CC00000310029F3D108BDFFF7DAFFFBE708B5B3
:102CD0000168CA6822F04002CA60202280F84120C0
:102CE000FFF7CEFF002008BD704708B5406AFFF728
:102CF000FBFF08BD70477047704710B5446A2368F2
:102D00005A6994F84130DBB2212B10D023685A69FC
:102D100002F0400294F84230DBB2222B11D0636CF7
:102D200043F0100363642046FFF7E6FF10BD02F096
:102D30008002002AEAD00023E3842046FFF7CAFD80
:102D4000E4E7002AEBD00023E3852046FFF7D2FD1D
:102D5000E5E708B5406A0023C385C384FFF7CCFFCD
:102D600008BD704790F84230DBB2222B69D18368EE
:102D7000B3F5805F4FD0826AB3F5805F04D0002B3B
:102D800056D10369002B53D103685B681370836AC3
:102D900001338362C38D9BB2013B9BB2C385002B81
:102DA00051D100B583B00268D36823F02003D3600B
:102DB0000268D36823F48073D3600268536923F0F8
:102DC00001035361202380F8423000234363036BE7
:102DD000012B33D100230363026802F10C0353E893
:102DE000003F23F010030C3242E800310029F3D1F8
:102DF00003681A6812F0100F06D0002201921A68B8
:102E000001925B680193019B818DFFF7AAFF00206F
:102E100003B05DF804FB0269002AACD1826A036842
:102E20005B68C3F308031380836A02338362B1E7EC
:102E300003685B6803F07F031370A8E7FFF75AFF8E
:102E4000E5E70220704700207047000030B583B0EE
:102E5000044602681368D068516913F00F0505D164
:102E600013F0200F02D010F0200F19D12DB111F066
:102E7000010119D110F4907F16D1216B01297DD069
:102E800013F0800F03D010F0800F40F0188113F082
:102E9000400F03D010F0400F40F0158103B030BD5B
:102EA0002046FFF75FFFF9E713F0010F06D010F49B
:102EB000807F03D0626C42F00102626413F0040F61
:102EC00004D019B1626C42F00202626413F0020F86
:102ED00004D019B1626C42F00402626413F0080F6E
:102EE00007D010F0200F00D119B1626C42F0080237
:102EF0006264626C002AD1D013F0200F02D010F06F
:102F0000200F29D123685B6903F04003626C12F043
:102F1000080F00D163B32046FFF7ECFC23685B6920
:102F200013F0400F20D0226802F1140353E8003F51
:102F300023F04003143242E800310029F3D1E36B5F
:102F400073B1634A5A63E06BFEF70EFF0028A5D009
:102F5000E06B436B9847A1E72046FFF703FFD1E7FB
:102F60002046FFF7C9FE99E72046FFF7C5FE95E723
:102F70002046FFF7C1FE002363648FE713F0100FB4
:102F80003FF47EAF10F0100F3FF47AAF00230193AF
:102F90001368019353680193019B536913F0400F29
:102FA00051D0E26B13685B689BB2002B3FF476AFA5
:102FB000A18D99427FF672AFE3859369202B37D0BC
:102FC000226802F10C0353E8003F23F480730C32B3
:102FD00042E800310029F3D1226802F1140353E8DA
:102FE000003F23F00103143242E800310029F3D1FD
:102FF000226802F1140353E8003F23F04003143227
:1030000042E800310029F3D1202384F84230002324
:103010002363226802F10C0353E8003F23F01003FE
:103020000C3242E800310029F3D1E06BFEF779FE63
:1030300002236363A18DE38D9BB2C91A89B2204636
:10304000FFF78FFE2AE7A18DE38D9BB2C91A89B2E3
:10305000E38D9BB2002B3FF421AF00293FF41EAF5C
:10306000226802F10C0353E8003F23F490730C3202
:1030700042E800300028F3D1226802F1140353E83B
:10308000003F23F00103143242E800300028F3D15E
:10309000202384F8423000232363226802F10C03CA
:1030A00053E8003F23F010030C3242E800300028C0
:1030B000F3D1022363632046FFF753FEEEE620467A
:1030C000FFF746FCEAE62046FFF701FEE6E600BF12
:1030D000532D000808B5406A01234363036B012B9D
:1030E00002D0FFF708FE08BD818D4908FFF739FEC1
:1030F000F9E708B50346406A1B681B6813F0200F08
:103100002BD10023C385026802F10C0353E8003F72
:1031100023F480730C3242E800310029F3D10268B5
:1031200002F1140353E8003F23F00103143242E894
:1031300000310029F3D1026802F1140353E8003F83
:1031400023F04003143242E800310029F3D1202358
:1031500080F84230036B012B07D000234363036BDD
:10316000012B0FD0FFF7C6FD08BD026802F10C036A
:1031700053E8003F23F010030C3242E800310029ED
:10318000F3D1EAE7818DFFF7ECFDEDE730B583B0D1
:10319000044613468162828500254564222280F818
:1031A0004220C26B1F489062E26B1F48D062E26B04
:1031B0001E481063E26B556320680A46011DE06BF0
:1031C000FEF774FD019523681A6801925B6801930C
:1031D000019B23695BB1226802F10C0353E8003FB5
:1031E00043F480730C3242E800310029F3D12268A5
:1031F00002F1140353E8003F43F00103143242E8A4
:1032000000310029F3D1226802F1140353E8003F92
:1032100043F04003143242E800310029F3D100208A
:1032200003B030BDF3300008D5300008FB2C000897
:1032300090F84230DBB2202B27D110B582B0044683
:1032400029B312B9012002B010BD0123036300238A
:103250004363FFF79BFF236B012B01D00120F2E7B3
:103260000023019323681A6801925B680193019B14
:10327000226802F10C0353E8003F43F010030C32C4
:1032800042E800310029F3D1DDE702207047012038
:10329000D9E7000010B586468446084C0FCCACE850
:1032A0000F000FCCACE80F0094E80F008CE80F0083
:1032B0000023AEF830308EF8323010BD480A0020BE
:1032C00008B501291FD002293CD1204B03604FF4DF
:1032D0000042828083604FF48042828103614022F9
:1032E000828283612022828303621022828483622D
:1032F0000822828503634FF48052828683634FF4F1
:10330000005383871DE0114B03604FF4806282807D
:103310008360022383810E4B0361102282828361CA
:1033200020228283036240228284836280238385F9
:10333000084B03634FF48042828683634FF400435B
:10334000838708BD044800F0C1FBFAE7000C014088
:1033500000080140001001402CB7000838B5154B9B
:103360001B7803B138BD144800F0B0FB0520FEF710
:103370003BF9002516E005EB8502930023440F4A34
:1033800032F813100E4800F03FFB0134132CF2DD2D
:103390000120FEF729F90B4800F098FB0520FEF705
:1033A00023F90135132D01DC0024EFE7034800F079
:1033B00027FAD7E7840F00203CB70008640C0020F0
:1033C00044B700080CB8000808B5124B1978132947
:1033D00005D012291AD801310E4B197008BD0022F0
:1033E0001A700D4B1978132905D012290AD801310A
:1033F000094B1970F2E71A700A20FEF7F5F8FFF78B
:10340000ADFFEBE7054800F0FFFAE7E7044800F0FE
:10341000FBFAE3E7600C0020840F002048B70008A7
:1034200060B7000808B5074B1B78074A1278018E71
:1034300003EB830302EB8303044A22F81310FFF724
:10344000C3FF08BD600C0020840F0020640C002026
:1034500038B504460D460F2927D9A1F11003DBB278
:10346000032B00F2CF80012281880068FEF77CFEEA
:103470000022A189A068FEF777FEA18EA38F00220B
:103480001943206BFEF770FEA5F11003122D00F01A
:10349000AB80032B00F0AE80012B40F0B680012200
:1034A000A18E206BFEF760FEAFE0002281880068ED
:1034B000FEF75AFE0122A189A068FEF755FEA28DF3
:1034C000A08CA38BA18A02431343002219432069D5
:1034D000FEF74AFE013D0E2D00F29780DFE805F071
:1034E000080E141C222A323C424A525C646E780058
:1034F0000122A18A2069FEF737FE86E00122A18B16
:103500002069FEF731FE80E0A18BA38A01221943D6
:103510002069FEF729FE78E00122A18C2069FEF7E0
:1035200023FE72E0A18CA38A012219432069FEF7D1
:103530001BFE6AE0A18CA38B012219432069FEF7D0
:1035400013FE62E0A38CA28BA18A134301221943CC
:103550002069FEF709FE58E00122A18D2069FEF7DF
:1035600003FE52E0A18DA38A012219432069FEF7D0
:10357000FBFD4AE0A18DA38B012219432069FEF7D0
:10358000F3FD42E0A38DA28BA18A134301221943CC
:103590002069FEF7E9FD38E0A18DA38C01221943D3
:1035A0002069FEF7E1FD30E0A38DA28CA18A1343D0
:1035B000012219432069FEF7D7FD26E0A38DA28CD6
:1035C000A18B1343012219432069FEF7CDFD1CE0B6
:1035D000A28DA08CA38BA18A02431343012219431D
:1035E0002069FEF7C1FD10E00122A18F206BFEF7DC
:1035F000BBFD0AE0A18FA38E01221943206BFEF7C9
:10360000B3FD02E0014800F0FFF938BD78B70008CB
:1036100010B5044690F83230032B1CD8DFE803F0D5
:1036200002121C24012380F83230154C21781548F1
:10363000FFF70EFF237873B9134B19781348FFF780
:1036400007FF08E0124B00221A70022380F8323084
:103650001048FEF749F910BD0D4B1B78012BFAD12C
:10366000032380F83230F6E7002380F8323009482F
:10367000FDF7CEFF20862046FFF7D4FEEBE700BF24
:10368000600C0020D4090020840F0020180C0020BA
:10369000610C0020480A0020014B01221A7070477B
:1036A000610C0020034658B1002006E00130054AB5
:1036B00082FB0312DB17C3EBA203002BF6DC70477F
:1036C000012070476766666610B50A46034C0146DE
:1036D000204600F003FA204610BD00BF880F0020EE
:1036E00008B50C4800F0F2F93220FDF77DFFFF230A
:1036F000292209490948FFF71AFA20B140F6B830E3
:10370000FDF772FF08BD064800F0E0F93220FDF732
:103710006BFFF3E798B70008C4B70008D00B002090
:10372000F0B7000810B541F28830FDF75DFF294879
:1037300000F0CCF93220FDF757FFFF230422264981
:103740002648FFF7F4F978B340F6B830FDF74CFFA0
:10375000234800F0BBF93220FDF746FFFF2321226A
:1037600020491E48FFF7E3F928B31C4C4FF4806250
:103770001D492046FFF75CFD4FF4FA60FDF734FF6A
:103780001A4800F0A3F93220FDF72EFFFF230D2287
:1037900017492046FFF7CBF9A0B140F6B830FDF746
:1037A00023FFFFF79DFF10BD124800F08FF9322074
:1037B000FDF71AFFC8E7104800F088F93220FDF73E
:1037C00013FFD2E70D4800F081F93220FDF70CFF1E
:1037D000E3E700BF10B800081CB80008D00B0020B9
:1037E00034B8000860B80008801F0020B8B800088E
:1037F000CCB8000824B8000888B80008DCB8000875
:10380000F8B507464FF400620021384800F0AAF8E6
:103810006423112236493748FFF789F90A20FDF75A
:10382000E3FE002648E029463348FFF74DFF0146F6
:103830002E4800F075F90134132C32DC06EB8603B8
:1038400007EBC30333F814502846FFF72BFF01386A
:103850000328F0D801A353F820F000BF2738000850
:103860006D3800087F380008913800082946234841
:10387000FFF72AFF01461D4800F052F9DBE7294611
:103880001F48FFF721FF0146184800F049F9D2E729
:1038900029461C48FFF718FF0146144800F040F97C
:1038A000C9E7124C204600F0B9F92218164B1988C6
:1038B0009B78215293700136132E01DC0024BBE764
:1038C0000A4C204600F0AAF9104B1B8823522046D0
:1038D00000F0A4F9FF2382B221460648FFF727F93A
:1038E0004FF4FA60FDF780FEF8BD00BF801700209E
:1038F000F4B80008D00B002008B9000810B900087F
:1039000018B9000844B7000820B9000838B7000803
:10391000014B1868704700BF0C00002070B50D4EB9
:103920000D4D761BB61006D0002455F8043B01342B
:103930009847A642F9D1094E094D07F0D3FE761BF0
:10394000B61006D0002455F8043B01349847A6422F
:10395000F9D170BD48BD000848BD000850BD000841
:1039600048BD0008830730B548D0541E002A3FD018
:103970000346CAB201E0013C3AD303F8012B9D078C
:10398000F9D1032C2DD9CDB245EA05250F2C45EAF6
:10399000054536D9A4F1100222F00F0C03F1200ED8
:1039A000E6444FEA121C03F1100242E9045542E9D1
:1039B000025510327245F8D10CF1010214F00C0FCF
:1039C00003EB021204F00F0C13D0ACF1040323F04C
:1039D00003030433134442F8045B9342FBD10CF01D
:1039E00003042CB1CAB21C4403F8012B9C42FBD146
:1039F00030BD64461346002CF4D1F9E70346144663
:103A0000BFE71A46A446E0E70FB400B5074A83B003
:103A100004AB106853F8042B8168019301F0B2FEE7
:103A200003B05DF804EB04B0704700BF0C00002049
:103A300030B5054689B008460C4600F0EFF8012184
:103A40000223214A04940692AA6B04AC0590084410
:103A500001940791AC680293039022B3636E13F054
:103A6000010FB4F90C309AB201D1980525D5910413
:103A700006D4626E43F4005322F40052A3816266BE
:103A8000284601AA214604F09FFF636E002814BF58
:103A90004FF0FF350A25DA0702D4A3899B0506D526
:103AA000284609B030BD284604F096FDD6E7A06D43
:103AB00005F030F9284609B030BDA06D05F028F9B1
:103AC000B4F90C309AB2D2E7D8B80008024B0146DC
:103AD0001868FFF7ADBF00BF0C0000200EB430B572
:103AE00004466FF000459CB00B4A1FAB0B49059292
:103AF00053F8042B086802A9CDE901340795049511
:103B0000069400F0EDF80022029B1A701CB0BDE88C
:103B1000304003B0704700BF0802FFFF0C000020D8
:103B2000830710B5044610D10268A2F1013323EADD
:103B3000020313F0803F08D150F8042FA2F10133A3
:103B400023EA020313F0803FF6D003781BB110F88C
:103B5000013F002BFBD100F003F8204610BD00BF51
:103B600080EA0102844612F0030F4FD111F0030FD7
:103B700032D14DF8044D11F0040F51F8043B0BD035
:103B8000A3F101329A4312F0803F04BF4CF8043B8A
:103B900051F8043B16D100BF51F8044BA3F1013298
:103BA0009A4312F0803FA4F101320BD14CF8043B50
:103BB000A24312F0803F04BF51F8043B4CF8044B81
:103BC000EAD023460CF8013B13F0FF0F4FEA3323F2
:103BD000F8D15DF8044B704711F0010F06D011F8D1
:103BE000012B0CF8012B002A08BF704711F0020FBF
:103BF000BFD031F8022B12F0FF0F16BF2CF8022BAA
:103C00008CF8002012F47F4FB3D1704711F8012BCC
:103C10000CF8012B002AF9D1704700BF20F00301F6
:103C200010F00300C0F1000051F8043B00F1040C57
:103C30004FEACC0C6FF000021CBF22FA0CF21343C7
:103C40004FF0010C4CEA0C2C4CEA0C4CA3EB0C0290
:103C500022EA030212EACC1204BF51F8043B0430FA
:103C6000F4D0C2F1000102EA0102B2FA82F2C2F11A
:103C70001F0200EBD200704730B540EA0104A307F1
:103C800022D1032A20D90B468446194653F8045BF7
:103C9000A5F1013424EA050414F0803F15D1043A5B
:103CA000032A19464CF8045BEFD801F1FF3E52B1EC
:103CB00063461EF8011F541E03F8011B41B1224642
:103CC0009C46002AF4D130BD844601F1FF3EEEE768
:103CD0006244002CF7D003F8011B9342FBD130BDA6
:103CE0002DE9F04FD5B00C460C9191460E930A90F9
:103CF00005F006F8036818461793FFF78FFFA389AE
:103D00001690190603D52369002B00F08F87002435
:103D10002BAB224698464D46CDE929442893129470
:103D200000230024CDE914342B78CDE91922CDE904
:103D30001B2218920892002B00F0CE81AA4604E0C4
:103D40001AF8013F002B00F00981252BF8D1BAEBBE
:103D5000050640F007819AF80030002B00F0BC8186
:103D600000234FF0FF324FF02B0920241F469AF812
:103D7000016007920AF1010A8DF8833009930AF174
:103D8000010AA6F120035A2B00F22081DFE813F08C
:103D9000CA021E011E01C5021E011E011E01A30250
:103DA0001E011E016A00F3021E014702D9021E0114
:103DB000D4025B005B005B005B005B005B005B00B0
:103DC0005B005B001E011E011E011E011E011E0183
:103DD0001E01B0011E010B027A00B001B001B0015A
:103DE0001E011E011E011E019E021E011E01B600C3
:103DF0001E011E011E0119021E014C021E011E01A0
:103E00003F071E011E011E011E011E011E011E0193
:103E10001E01B0011E010B027C00B001B001B00117
:103E200091027C0075001E0184021E017002B80020
:103E30005E0275001E01190272001C071E011E01A0
:103E40001F071E0172000022A6F130031AF8016B51
:103E500002EB820203EB4202A6F13003092BF5D9F3
:103E600009928EE70E9B53F8042B002A09920E93B9
:103E7000C0F2D2819AF8006081E79AF8006047F0BA
:103E800020077CE747F01007BA060E9B40F17D81C2
:103E9000073323F007031A465B6852F8084B99462C
:103EA0000E92002BC0F27F85079B013301F0398011
:103EB00054EA090327F0800B00F005850A2C79F1FC
:103EC000000380F0938701235F4630348DF84F4123
:103ED0000B930DF24F15079A0B9900238A42B8BF36
:103EE0000A4606929DF883200D930F931393109327
:103EF000002A7CD0069B0133069378E047F0100738
:103F000017F0200900F032810E9B073323F00703DE
:103F1000D3F8049053F8084B0E93002327F4806BDA
:103F200000228DF88320079A511C00F02A8254EA5F
:103F300009012BF0800740F02382002A41F02B80FA
:103F4000002B40F0C5841BF001030B9300F0548557
:103F500030230DF24F158DF84F31BCE7BAEB050653
:103F600000F0BA802A9BC8E9005633442A93299B63
:103F70000133072B299305DC08F10808089B33441B
:103F80000893E8E60C990A9828AA06F0D3F880B9B5
:103F90000DF1AC08F2E70C990A9828AA06F0CAF8C5
:103FA000002800F08A800D9B1BB10D990A9804F03F
:103FB0000BFC0C9B9B8913F0400F089B18BF4FF024
:103FC000FF330893089855B0BDE8F08F002E00F03D
:103FD0008380012300228DF8EC6006933BAD8DF8C1
:103FE00083200B930D9207920F921392109217F069
:103FF000020302D006990231069117F0840B07D113
:1040000009990698A1EB0009B9F1000F00F3368376
:104010002A9C82B10122C8F80420299A0134013275
:104020000DF18301072A2A942992C8F8001000F3A1
:10403000698308F108087BB10223C8F80430299B82
:104040000234013321AA072B2A942993C8F80020AF
:1040500000F36C8308F10808BBF1800F00F02E829A
:10406000079B0B9AA3EB020BBBF1000F00F37182CD
:10407000FB0500F1C5810B9BC8F800501C44C8F833
:104080000430299B2A940133072B299300F3EA82F9
:1040900008F108087B0705D5099B069A9D1A002D93
:1040A00000F35083DDE9083206998A42ACBF9B18C1
:1040B0005B180893002C7FF46EAF002329930D9BAF
:1040C0001BB10D990A9804F07FFB55460DF1AC0821
:1040D0002B78002B7FF432AE2A9B002B3FF469AF84
:1040E0000C9C0A98214628AA06F024F8A38962E7C6
:1040F0000E9B073323F00702F2E80234CDE91434B3
:10410000DDE9143424F00044994618460E92214605
:104110004FF0FF32B64BFCF7E7FC002840F09684E6
:10412000484621464FF0FF32B14BFCF7BFFC002858
:1041300040F08C84DDE9140100220023FCF7ACFC84
:10414000002840F0A6879DF8832000210320A94D78
:10415000A94B27F080070D910690472EC8BF1D463A
:1041600007910B900F9113911091C1E617F0100376
:1041700040F0628417F0400200F07B870E9A994667
:1041800052F8044B0E92A4B2C7E653F8044B0E93B8
:10419000FB0600F141847D0640F13B8444F3C039C5
:1041A0004B4624B27DE6012000220E9B069053F878
:1041B000041B3BAD8DF883208DF8EC100E930B9013
:1041C00010E74FF000090E9C079B54F8045B8DF834
:1041D0008390002D00F0EE865A1C00F060851A4690
:1041E0004946284605F0B4F80D90002801F09E805D
:1041F0000D9B9DF883205B1B0B9323EAE373CDF8A3
:104200001C900E940693CDF83490CDF83C90CDF8E8
:104210004C90CDF840906BE6099B5B4209939AF86D
:10422000006047F00407AAE547F0100B1BF02009D7
:1042300000F0AA830E9B073323F007031A4652F8B7
:10424000084BD3F804900E92012369E630227826B9
:104250000E9B8DF8842053F8044B684A0E934FF060
:104260000009022347F0020B8DF88560189257E68B
:10427000BD0600F1D683FC0600F19386780600F1B6
:104280005D87B90540F18D860E9B089953F8042B84
:10429000554611700E931BE79AF800606C2E03BF11
:1042A0009AF8016047F020070AF1010A47F0100769
:1042B00065E59AF80060682E03BF9AF8016047F43C
:1042C00000770AF1010A47F0400758E59AF80060C4
:1042D00047F0080753E50A9E304604F011FD436895
:1042E00018461B93FFF79AFC034630461C931E4664
:1042F00004F006FD83681993002E3FF4BBAD199BB3
:10430000002B3FF4B7AD199B1B78002B3FF4B2ADE7
:104310009AF8006047F4806731E59AF8006047F04A
:1043200001072CE59DF88330002B7FF4A3AD9AF8AC
:1043300000608DF8834022E59AF8006047F080071E
:104340001DE5524612F8016B2A2E01F0EB81A6F111
:104350003003092B924698BF002201F203801AF81D
:10436000016B02EB820203EB4202A6F13003092B40
:10437000F5D9079205E59AF800608DF88390FEE480
:10438000BB46012B3FF49AAD022B54AD12D1189AC3
:1043900004F00F03D35C240944EA09744FEA1919A5
:1043A00005F8013D54EA0903F2D154AB5B1B5F46AB
:1043B0000B9390E504F00703E40844EA49744FEADC
:1043C000D909303354EA09012A4605F8013DF1D1F3
:1043D0001BF0010FE9D0302BE7D03023023A05F86B
:1043E000013C54AB9B1A5F4615460B9373E500BF27
:1043F000FFFFEF7F28B900082CB9000838B9000882
:10440000652E40F3E980DDE9140100220023FCF76A
:1044100039FB002800F0D2810123C8F80430299B21
:10442000BF4A01330134072B2A942993C8F800208E
:1044300000F37A8508F10808229B129A934280F2D1
:10444000D782169B179A1C44C8E90023299B2A94FB
:104450000133072B299300F3DD8308F10808129B31
:104460005D1E002D7FF716AE102D41F34181DFF860
:10447000B492224649461026B946299B0F46DDF8DC
:1044800028B00C9C05E008F10808103D102D40F301
:10449000588501331032072BC8E90076CDE929325F
:1044A000F1DD2146584628AA05F044FE00287FF495
:1044B0007AADDDE929320DF1AC08E6E7099B069AF1
:1044C000A3EB020BBBF1000F7FF7CAADBBF1100FDE
:1044D00041F30580DFF84C9241462046A8464C4601
:1044E0001023299A0C9DDDF8289006E0ABF1100B03
:1044F000BBF1100F01F1080119DD01321030072A5C
:10450000C1E90043CDE92920F0DD2946484628AA23
:1045100005F010FE00287FF446ADDDE92920ABF15F
:10452000100BBBF1100F4FF010032BA9E5DC454633
:10453000A1468846044601325C44072ACDE9292475
:10454000C8F80090C8F804B000F3188508F108080E
:1045500086E5BBF1100F40F39785DFF8C89141461F
:104560002046A8464C461023299A0C9DDDF8289039
:1045700006E0ABF1100BBBF1100F01F1080119DDE2
:1045800001321030072AC1E90043CDE92920F0DDCE
:104590002946484628AA05F0CDFD00287FF403AD42
:1045A000DDE92920ABF1100BBBF1100F4FF0100328
:1045B0002BA9E5DC4546A1468846044601325C4409
:1045C000072ACDE92924C8F80090C8F804B000F300
:1045D000CE8108F108084BE5129B012B40F37E8148
:1045E0000123299E01341E44072EC8F800502A9446
:1045F000C8F80430299600F3E18108F10808169BF9
:104600000136179A1C44072EC8E90023CDE9296416
:1046100000F3E18108F108080022DDE9140100231C
:10462000FCF730FA002840F07681129B0136013BFE
:1046300001351C44072EC8F800502996C8F80430EC
:104640002A9400F35B8108F108081A9B01361C4488
:10465000C8F80430072E24ABCDE92964C8F800302F
:104660007FF716AD0C990A9828AA05F063FD00287B
:104670007FF499AC2A9C0DF1AC080BE5B9F1100F51
:1046800040F35086DDE929214046CDE91D36B84684
:1046900010244F460C9EA9460A9D04E0103F102F9F
:1046A00000F1080016DD01321F4B1031072AC0E966
:1046B0000034CDE92921F1DD3146284628AA05F04C
:1046C00039FD00287FF46FACDDE92921103F102F60
:1046D0002BA8E8DC4D46DDE91D36B9464746804645
:1046E00009EB010401321049072ACDE92924C8F851
:1046F0000490C8F8001000F3C3839DF8832008F1EC
:10470000080886E40C990A9828AA1D9305F012FD62
:1047100000287FF448AC2A9C1D9B0DF1AC088AE46C
:1047200068B900087CB900086CB900080C990A98AF
:1047300028AA05F0FFFC00287FF435AC2A9C0DF177
:10474000AC0889E4102D40F3C4861026299B0A9FEB
:10475000DDF8309004E0103D102D08F1080817DD59
:104760000133B84A1034072BC8E90026CDE92934B3
:10477000F1DD4946384628AA05F0DCFC00287FF424
:1047800012ACDDE92934103D102D0DF1AC08E7DC49
:104790000133AC4A2C44072BCDE92934C8F8045026
:1047A000C8F800207FF77EAC0C990A9828AA05F07B
:1047B000C1FC00287FF4F7AB2A9C73E422990029FE
:1047C00040F36F83DDF84090129B9945A8BF99464E
:1047D000B9F1000F0BDD299B4C440133072BC8E9CD
:1047E00000592A94299300F31D8508F10808109EAA
:1047F000B9F1000FA8BFA6EB0906002E00F3258231
:10480000DDF840B07805AB4400F15F82229B129A3C
:10481000934202DBF90740F17684169A1799144403
:10482000C8E90012299A2A940132072A299200F332
:10483000138508F10808129AAE18A6EB0B06D51AD4
:10484000AE42A8BF2E46002E0DDD299B3444013315
:10485000072BC8F800B0C8F804602A94299300F325
:10486000718508F10808002EA8BFAD1B002D7FF749
:1048700011AC102D40F33C87DFF8CC91224649461D
:104880001026B946299B0F46DDF828B00C9C05E0A0
:1048900008F10808103D102D40F353830133103206
:1048A000072BC8E90076CDE92932F1DD21465846CB
:1048B00028AA05F03FFC00287FF475ABDDE929321A
:1048C0000DF1AC08E6E7079B002B7FF4FCAA5F46DE
:1048D000002354AD07930B93FFF7FDBAFA073FF59A
:1048E0007FAE0123299E01341E44072EC8F80050D4
:1048F0002A94C8F8043029967FF7A5AE0C990A9837
:1049000028AA05F017FC00287FF44DABDDE92964E7
:104910000DF1AC0899E6129B5D1E002D7FF795AE58
:10492000102D40F3DF86224607974FF0100BDFF87B
:1049300018910A9C0C9F05E008F10808103D102D05
:1049400040F37F8301361032072EC8E9009BCDE982
:104950002962F1DD3946204628AA05F0EBFB002844
:104960007FF421ABDDE929620DF1AC08E6E70C9993
:104970000A9828AA05F0DEFB00287FF414AB2A9CD5
:104980000DF1AC08FFF774BB1BF010030E9A3AD17F
:104990001BF0400133D052F8044B99460E9201238C
:1049A000A4B2FFF7BDBA2D2364428DF88330BB4615
:1049B0004FF0010369EB4909FFF7B5BA0C990A9862
:1049C00028AA05F0B7FB00287FF4EDAADDE92964E9
:1049D0000DF1AC0813E60C990A9828AA05F0AAFB79
:1049E00000287FF4E0AADDE929640DF1AC0813E6A4
:1049F000FD077FF54FAB24E554ADFFF76CBA1BF410
:104A0000007940F08A8352F8044B01230E92FFF79D
:104A100087BAB80500F19B834FEAE4794B46FFF76C
:104A200040BA0E9B089853F8041BC2175546C1E9BB
:104A300000020E93FFF74CBB0E9B53F8044B0E93F2
:104A4000FFF76BBA6CB900087CB90008DDE9140106
:104A500002460B46FCF748F8002840F0E985612E35
:104A600000F07D85412E00F08B84079B013300F020
:104A70008F8326F02003472B069300F08F85DDE916
:104A8000141247F480730F931346002BC0F2B085C5
:104A90000B9300238B461D930D93069B462B00F032
:104AA000E983452B00F0468507990B9B0191022174
:104AB000009126A9049123A9039122A95A460A9894
:104AC000029102F05DFD069B0546472B40F03A86B9
:104AD00017F0010FB9460F9F40F0FE84269B5B1B29
:104AE0001293069B472B00F06E83069B462B00F02B
:104AF000F083229B1093109B069A013B412A22933C
:104B000000F0BB850021F2B2002B8DF89020B6BFDB
:104B10002D222B22109B8DF89120B8BFC3F10103E9
:104B2000092B40F39B850DF19F0C6246B64F1C4646
:104B3000104687FB0312D917C1EBA20101EB8102DA
:104B4000A3EB42023032632C00F8012C0B4600F13B
:104B5000FF32ECDC3033811EDBB28C4502F8013CC5
:104B600040F2F9850DF1920101E012F8013B944504
:104B700001F8013BF9D10DF1A1030DF192021B1ACD
:104B8000134424AA9B1A1A93129B1A9A012B1A44B3
:104B90000B9240F381850B9B169A13440B930023D1
:104BA0000B9A29F4806722EAE27247F480770F9328
:104BB0000692139310931D9B002B40F02C839DF8BD
:104BC00083200793FFF794B9BB46FFF72FBB8F4BAA
:104BD000189317F0200900F0F5800E9B073323F09F
:104BE0000703D3F8049053F8084B0E93F80709D540
:104BF00054EA090306D030238DF8856047F0020798
:104C00008DF88430022327F4806BFFF789B9804B3D
:104C10001893DEE70C990A9828AA05F08BFA002869
:104C20007FF4C1A92A9C0DF1AC0818E440210A9830
:104C300004F0E2F80C9B18601861002800F09785DA
:104C400040230C9A5361FFF762B8102E40F376852B
:104C5000DFF8C091424648462146A846B9464FF083
:104C6000100B0746299B0A9C0C9D04E00832103E5D
:104C7000102E40F3138201331031072BC2E9007B61
:104C8000CDE92931F2DD2946204628AA05F052FA5D
:104C900000287FF488A9DDE929312BAAE7E7284617
:104CA000CDF81C900E94FEF7B9FF20EAE0739DF852
:104CB00083200B90CDF83490CDF83C90CDF84C90FB
:104CC000CDF840900693FFF713B9129B4246DDF8EA
:104CD0004C80EB185E460793CDF82CA01097214628
:104CE000199FDDF87090DDF828A0DDF830B00F9B3B
:104CF0001395B8F1000F2ED083BB013F08F1FF38A8
:104D00001B9B4944C2E90039299B2A910133072B97
:104D1000299360DC0832079B38789B1B8342A8BF2D
:104D20000346002B1C460BDD299819440130072847
:104D3000C2E900632A91299000F31481387808327F
:104D4000002CB4BF0546051B002D0BDC06440F9B51
:104D5000B8F1000FD0D1002B00F026820F9B013B51
:104D60000F93CDE7102D40F39D841024299804E083
:104D7000103D102D02F1080216DD0130254B1031D7
:104D80000728C2E90034CDE92901F1DD5946504632
:104D900028AA05F0CFF900287FF405A9DDE929014B
:104DA000103D102D2BAAE8DC01301A4B29440728AE
:104DB000CDE929015560136000F34182387808324B
:104DC0000644C4E717F0100300F0A0800E9B53F8D0
:104DD000044B0E930AE75946504628AA05F0AAF953
:104DE00000287FF4E0A82A992BAA94E700230BF46B
:104DF00080620696CDF82CA0CDF8348092461E46EF
:104E0000DDF8648054AF14E06766666638B9000860
:104E10004CB900087CB900080023204649460A2204
:104E2000FBF7A0FE0A2C79F100031BD30446894648
:104E30002F4620460A2200234946FBF793FE3032D4
:104E40007D1E013607F8012CBAF1000FE4D098F866
:104E500000309E42E0D1FF2EDED00A2C79F1000313
:104E600080F0308154AB5B1BDDF82CA0CDF8648062
:104E700012965F46069EDDF834800B93FFF72BB841
:104E80000C990A9828AA1D9305F054F900287FF47C
:104E90008AA89DF883202A9C1D9B0DF1AC08FFF782
:104EA000B8B80123C8F80430299BBC4A0133013447
:104EB000072B2A942993C8F8002000F3178108F1E2
:104EC0000808002940F08680129A07F00103134376
:104ED0003FF4E0A8169B17991A19C8E90013299BFB
:104EE0002A920133072B299300F3378108F1080830
:104EF000129901338C18072BCDE92934C8F80050DA
:104F0000C8F804107FF7C4A8FFF7ACBB17F0400245
:104F100000F0A5800E9A994652F8044B0E92A4B266
:104F200064E6BB46FEF7CABF0C990A9828AA05F0AA
:104F300001F900287FF437A82A9C0DF1AC08FFF78F
:104F40007BBA14463A464F46914601332C44072B10
:104F5000C8F80090C8F80450CDE929347FF798A824
:104F6000FFF780BB5946504628AA05F0E3F8002811
:104F70007FF419A838782A992BAAE1E60C990A98A7
:104F800028AA05F0D7F800287FF40DA82A9C0DF177
:104F9000AC08FFF765B8012BBB467FF4F5A9FEF717
:104FA00092BF0E9B089953F8042B554611600E933F
:104FB000FFF78EB8062B294628BF06232A460795F9
:104FC0000D950693764D0E940B930F9113911091BE
:104FD000FEF78EBF169B17981A19C8E90003299B84
:104FE0002A920133072B299300F3B78008F10808B0
:104FF0000029BFF67DAF4E42103180F2A9834146B1
:105000001024A846DFF89C91DDF828B00C9D04E040
:105010000831103E102E40F3A78201331032072BC7
:10502000C1E90094CDE92932F2DD2946584628AA83
:1050300005F080F800287EF4B6AFDDE929322BA90F
:10504000E7E71446079F01362C44072ECDE9296473
:10505000C8F80090C8F804507FF7F5AA4EE417F49A
:1050600000790E9B66D053F8044B91460E93E4B240
:10507000BCE517F400790E9B57D053F8044B9146CA
:105080000E93E4B2FEF749BF299ADFF81891FFF7B3
:1050900095BA2D228DF88320FFF757B845469046E4
:1050A0003A460C464F46914601333444072BCDE92E
:1050B0002934C8F80090C8F804605CDC08F10808DE
:1050C000FFF79EBB1C9B1B99ED1A1A462846FEF75C
:1050D000D3FD98F801300BB108F10108204649468C
:1050E0000A2200230026FBF73DFD9FE60C990A9853
:1050F00028AA05F01FF800287EF455AF22992A9CB3
:105100000DF1AC08DDE6129AAE18A6EB0B06D51A27
:10511000AE42A8BF2E46FFF7A6BB52F8044B894605
:1051200001230E92E4B2FEF7FBBE53F8044B0E933C
:10513000FEF7F3BE53F8044B0E9357E50E9B089908
:1051400053F8042B554611800E93FEF7C1BF44F36C
:10515000C0194B4664B2FEF7A4BE0C990A9828AA5F
:1051600004F0E8FF00287EF41EAFDDE92932229921
:105170000DF1AC083CE70C990A9828AA04F0DAFF74
:1051800000287EF410AF2A9C0DF1AC08FFF738BB65
:105190000623079326F02003069370E468B90008FD
:1051A00060B900087CB90008DDE91235EB189E42B1
:1051B000B346199790460C4628BF9B46DDF82CA0B5
:1051C000109FFFF723BB229BDA1C109302DB079A88
:1051D000934204DD023E26F0200306938BE4109BED
:1051E000129A9342C0F2C28019F0010F00F01D82A2
:1051F000169A13440B9319F4806F00F01482109BDD
:105200006726002B76DC0B9B23EAE37306930023CF
:105210000F931393CFE42D2200238DF8832007935F
:10522000FEF768BE0C990A9828AA04F083FF0028AC
:105230007EF4B9AE2A9C0DF1AC08FFF7D8BA5946F6
:10524000504628AA04F076FF00287EF4ACAE3878E9
:105250002A992BAA06447AE50C990A9828AA04F000
:1052600069FF00287EF49FAE229B2A9C0DF1AC08BA
:10527000FFF7E1BA07990B9B01910321009126A941
:10528000049123A9039122A95A460A98029102F097
:1052900077F903780546302B00F01682229B079A97
:1052A000B94613440F9FEC185846002200230B996F
:1052B000FBF7E8FB08B1234611E4269BA342BFF4A9
:1052C0000EAC30215A1C26921970269B9C42F9D8AC
:1052D00005E4229A002A109240F30E82079909F001
:1052E00001030B4340F07E816626109B0B9319F45B
:1052F000806F88D019990B78FF2B00F0258200244D
:10530000109A204604E001300131FF2B00F0598152
:10531000934280F25681D21A4B78002BF3D10B784E
:105320000134F2E7DDE92921FFF7DAB9079B9DF89F
:1053300083200E9406930B9307900F901390109078
:10534000FEF7D6BD0C990A9828AA04F0F3FE0028AF
:105350007EF429AE229D129B2A9C0DF1AC085D1BA8
:10536000FFF781BA00230793FEF70BBD129B169A35
:105370009A18109B0B92002B40F385816726B6E7A5
:1053800030238DF8843058238DF88530079B47F003
:105390000204632B00F3C48000233BAD0D9347F45C
:1053A00081730F93DDE914121346002B2746C0F2D8
:1053B00084800B9300238B461D9326F020030693D5
:1053C000612E00F01881412E7FF467AB22AA584667
:1053D0000B9904F01FFE00224FF07F53FBF7EAF811
:1053E00002460B46CDE9102300220023FBF74AFBBF
:1053F00008B101232293AD4B0B93079BCDE912A675
:10540000CDE91E78DDE91067AB46DDF82CA003F18D
:10541000FF39109506E00022002309F1FF39FBF760
:1054200031FBE8B90022A24B30463946FBF7C2F8FF
:105430000F460646FBF76EFB0446FBF751F80B469A
:10544000024639463046FAF7FDFE1AF80430B9F143
:10545000FF3FD8464D4606460F460BF8013BDAD1D2
:10546000304639460022934BA946DDF848A0109DEE
:10547000CDF84880CDE91001DDF87C80139E1E9F99
:10548000FBF728FB80BBDDE910010022894BFBF70D
:10549000F9FA08B1E10727D44B46002B06DB30228E
:1054A00001335B440BF8012B5B45FBD1ABEB0503F0
:1054B000B94612930F9FFFF714BB26F02003069303
:1054C0002D22DDE914349B4604F100431D920B9319
:1054D00076E7299BFFF75CB9079BEC18E4E6299A6D
:1054E000DFF8D491FFF727B8129B26930B9B1BF88C
:1054F000012CD97B5B468A4209D1302003F8010C8C
:10550000269B5A1E269213F8012C9142F6D0392A76
:105510000BBF0B9A0132927AD2B203F8012CC5E785
:105520000A98591C03F068FC0546002800F0178112
:105530000D9034E70221009107995A464C1C26A988
:10554000049123A9039122A90B9B0A98019402912B
:1055500002F016F80546B9462C440F9FA4E6302306
:105560008DF8843078230FE745468846013332446E
:10557000072BCDE92932C8F80090C8F804607FF7FE
:10558000B5AC0C990A9828AA04F0D4FD00287EF442
:105590000AADDDE929320DF1AC08A9E4079B002B27
:1055A00008BF0123079347F480730F93159B002BCB
:1055B000C0F2B680DDF850B00D900B931D90FFF750
:1055C00073BA1991109213900F940F9A139B1C9910
:1055D00013440B9A01FB03230B9323EAE373069313
:1055E000FFF7E9BA169B6626D31819440B917EE69D
:1055F00000230D9364E722AA58460B9904F00AFD94
:1056000000224FF07F53FAF7D5FF02460B46CDE953
:10561000102300220023FBF735FA08B1012322935F
:10562000264B0B93E9E66726EDE5109B0B93E2E52D
:10563000159B0320002BB8BF2D224FF00003A8BFFD
:105640009DF8832019460D931D4D1E4BB8BF8DF854
:10565000832027F080070690FEF77FBD002944D104
:1056600030228DF892200DF19302303302F8013B85
:1056700024ABD31A1A93FFF787BA06F10F02012160
:10568000D2B2FFF741BAC3F101031A4422EAE2732E
:1056900067260B920693BAE519F0010F3FF47FAA33
:1056A000FFF779BA2998FFF77FBB00BF4CB9000814
:1056B000000030400000E03F7CB9000838B9000825
:1056C00030B9000834B900085846002200230B996D
:1056D000FBF7D8F900287FF4E1AD079BC3F1010384
:1056E0002293DCE5DFF89890ADE40DF19202BCE77F
:1056F000299BDFF88C9028E4079A09F0010959EA00
:10570000020304D10123662606930B937FE5169BC3
:10571000662601331A4422EAE2730B92069376E579
:105720000D90CDE60E9B9AF80160924653F8042B3B
:105730000E9342EAE2730793FEF721BB299BDFF841
:105740004090B1E4079C06E700230F9313933CE7D6
:10575000DFF82C900AE702231A93FFF715BA0C9989
:105760008B8943F0400213468A81FEF724BC4FF038
:10577000FF320C2308920A9A1360FEF723BC00BF85
:105780007CB900082DE9F04FD5B01C469146079131
:105790000546099003F0B4FA02680E941046179279
:1057A000FEF73CFA16901DB1AB6B002B00F01D828A
:1057B000079A536EDD0740F12D81B2F90C2091B2AA
:1057C0008F0409D4079B42F400529A8191B21A4681
:1057D0005B6E23F4005353660E0740F1C080079BB5
:1057E0001B69002B00F0BB8001F01A030A2B00F0AC
:1057F000C48000242BAB224698464D46CDE929446F
:105800002893129400230024CDE914342B78CDE999
:105810001922CDE91B2218920B92002B00F08F81E8
:10582000AA4604E01AF8013F002B00F0BB80252BAC
:10583000F8D1BAEB050640F0B9809AF80030002B99
:1058400000F07D8100234FF0FF324FF02B09202420
:105850001F469AF8016008920AF1010A8DF8833018
:105860000A930AF1010AA6F120035A2B00F2E18003
:10587000DFE813F00503DF00DF000003DF00DF00D7
:10588000DF00DE02DF00DF006A006E02DF0055028B
:105890007802DF0073025B005B005B005B005B0073
:1058A0005B005B005B005B00DF00DF00DF00DF0010
:1058B000DF00DF00DF006C01DF00EA01C4016C01E2
:1058C0006C016C01DF00DF00DF00DF00D002DF00D1
:1058D000DF002302DF00DF00DF00F801DF009202BB
:1058E000DF00DF008707DF00DF00DF00DF00DF0011
:1058F000DF00DF00DF006C01DF00EA01C6016C01A0
:105900006C016C01B602C601BF01DF00C302DF00FB
:105910005A022502A402BF01DF00F80172008407C9
:10592000DF00DF006507DF0072000022A6F1300310
:105930001AF8016B02EB820203EB4202A6F130037C
:10594000092BF5D90A928EE70E9B53F8042B002AF7
:105950000A920E93C0F2E0819AF8006081E7079DF9
:105960000998294601F0FCFC002841F04D83A989E3
:1059700001F01A030A2B7FF43CAF079AB2F90E30FC
:10598000002BFFF636AF536ED80702D4890541F1DC
:10599000488123464A460799099855B0BDE8F04F1B
:1059A00001F09CBCBAEB050600F0C9802A9BC8E94F
:1059B000005633442A93299B0133072B299305DC96
:1059C00008F108080B9B33440B9336E707990998B5
:1059D00028AA04F069FC80B90DF1AC08F2E7079938
:1059E000099828AA04F060FC002800F099800D9B1B
:1059F0001BB11946099802F0E7FE079A536ED907C2
:105A000040F1E88093895B0601F10A830B9855B059
:105A1000BDE8F08F079BB3F90C20900591B23FF5DC
:105A2000CFAE1D46986D03F073F9B5F90C2091B215
:105A3000C6E6002E00F08380012300228DF8EC6082
:105A400006933BAD8DF883200C930D9208920F9234
:105A50001392109217F0020302D0069902310691B8
:105A600017F0840B07D10A990698A1EB0009B9F148
:105A7000000F00F390832A9C82B10122C8F8042011
:105A8000299A013401320DF18301072A2A942992BF
:105A9000C8F8001000F3D88308F108087BB102238E
:105AA000C8F80430299B0234013321AA072B2A9419
:105AB0002993C8F8002000F3D58308F10808BBF14A
:105AC000800F00F08882089B0C9AA3EB020BBBF1BD
:105AD000000F00F3CB82FB0500F11F820C9BC8F87E
